{
  "_format": "hh-sol-artifact-1",
  "contractName": "NFT",
  "sourceName": "contracts/ERC721.sol",
  "abi": [
    {
      "inputs": [],
      "stateMutability": "nonpayable",
      "type": "constructor"
    },
    {
      "inputs": [
        {
          "internalType": "address",
          "name": "sender",
          "type": "address"
        },
        {
          "internalType": "uint256",
          "name": "tokenId",
          "type": "uint256"
        },
        {
          "internalType": "address",
          "name": "owner",
          "type": "address"
        }
      ],
      "name": "ERC721IncorrectOwner",
      "type": "error"
    },
    {
      "inputs": [
        {
          "internalType": "address",
          "name": "operator",
          "type": "address"
        },
        {
          "internalType": "uint256",
          "name": "tokenId",
          "type": "uint256"
        }
      ],
      "name": "ERC721InsufficientApproval",
      "type": "error"
    },
    {
      "inputs": [
        {
          "internalType": "address",
          "name": "approver",
          "type": "address"
        }
      ],
      "name": "ERC721InvalidApprover",
      "type": "error"
    },
    {
      "inputs": [
        {
          "internalType": "address",
          "name": "operator",
          "type": "address"
        }
      ],
      "name": "ERC721InvalidOperator",
      "type": "error"
    },
    {
      "inputs": [
        {
          "internalType": "address",
          "name": "owner",
          "type": "address"
        }
      ],
      "name": "ERC721InvalidOwner",
      "type": "error"
    },
    {
      "inputs": [
        {
          "internalType": "address",
          "name": "receiver",
          "type": "address"
        }
      ],
      "name": "ERC721InvalidReceiver",
      "type": "error"
    },
    {
      "inputs": [
        {
          "internalType": "address",
          "name": "sender",
          "type": "address"
        }
      ],
      "name": "ERC721InvalidSender",
      "type": "error"
    },
    {
      "inputs": [
        {
          "internalType": "uint256",
          "name": "tokenId",
          "type": "uint256"
        }
      ],
      "name": "ERC721NonexistentToken",
      "type": "error"
    },
    {
      "inputs": [
        {
          "internalType": "address",
          "name": "owner",
          "type": "address"
        }
      ],
      "name": "OwnableInvalidOwner",
      "type": "error"
    },
    {
      "inputs": [
        {
          "internalType": "address",
          "name": "account",
          "type": "address"
        }
      ],
      "name": "OwnableUnauthorizedAccount",
      "type": "error"
    },
    {
      "anonymous": false,
      "inputs": [
        {
          "indexed": true,
          "internalType": "address",
          "name": "owner",
          "type": "address"
        },
        {
          "indexed": true,
          "internalType": "address",
          "name": "approved",
          "type": "address"
        },
        {
          "indexed": true,
          "internalType": "uint256",
          "name": "tokenId",
          "type": "uint256"
        }
      ],
      "name": "Approval",
      "type": "event"
    },
    {
      "anonymous": false,
      "inputs": [
        {
          "indexed": true,
          "internalType": "address",
          "name": "owner",
          "type": "address"
        },
        {
          "indexed": true,
          "internalType": "address",
          "name": "operator",
          "type": "address"
        },
        {
          "indexed": false,
          "internalType": "bool",
          "name": "approved",
          "type": "bool"
        }
      ],
      "name": "ApprovalForAll",
      "type": "event"
    },
    {
      "anonymous": false,
      "inputs": [
        {
          "indexed": false,
          "internalType": "uint256",
          "name": "_fromTokenId",
          "type": "uint256"
        },
        {
          "indexed": false,
          "internalType": "uint256",
          "name": "_toTokenId",
          "type": "uint256"
        }
      ],
      "name": "BatchMetadataUpdate",
      "type": "event"
    },
    {
      "anonymous": false,
      "inputs": [
        {
          "indexed": false,
          "internalType": "uint256",
          "name": "_tokenId",
          "type": "uint256"
        }
      ],
      "name": "MetadataUpdate",
      "type": "event"
    },
    {
      "anonymous": false,
      "inputs": [
        {
          "indexed": true,
          "internalType": "address",
          "name": "previousOwner",
          "type": "address"
        },
        {
          "indexed": true,
          "internalType": "address",
          "name": "newOwner",
          "type": "address"
        }
      ],
      "name": "OwnershipTransferred",
      "type": "event"
    },
    {
      "anonymous": false,
      "inputs": [
        {
          "indexed": true,
          "internalType": "address",
          "name": "from",
          "type": "address"
        },
        {
          "indexed": true,
          "internalType": "address",
          "name": "to",
          "type": "address"
        },
        {
          "indexed": true,
          "internalType": "uint256",
          "name": "tokenId",
          "type": "uint256"
        }
      ],
      "name": "Transfer",
      "type": "event"
    },
    {
      "inputs": [
        {
          "internalType": "address",
          "name": "to",
          "type": "address"
        },
        {
          "internalType": "uint256",
          "name": "tokenId",
          "type": "uint256"
        }
      ],
      "name": "approve",
      "outputs": [],
      "stateMutability": "nonpayable",
      "type": "function"
    },
    {
      "inputs": [
        {
          "internalType": "address",
          "name": "owner",
          "type": "address"
        }
      ],
      "name": "balanceOf",
      "outputs": [
        {
          "internalType": "uint256",
          "name": "",
          "type": "uint256"
        }
      ],
      "stateMutability": "view",
      "type": "function"
    },
    {
      "inputs": [
        {
          "internalType": "uint256",
          "name": "tokenId",
          "type": "uint256"
        }
      ],
      "name": "burn",
      "outputs": [],
      "stateMutability": "nonpayable",
      "type": "function"
    },
    {
      "inputs": [
        {
          "internalType": "uint256",
          "name": "tokenId",
          "type": "uint256"
        }
      ],
      "name": "getApproved",
      "outputs": [
        {
          "internalType": "address",
          "name": "",
          "type": "address"
        }
      ],
      "stateMutability": "view",
      "type": "function"
    },
    {
      "inputs": [
        {
          "internalType": "address",
          "name": "owner",
          "type": "address"
        },
        {
          "internalType": "address",
          "name": "operator",
          "type": "address"
        }
      ],
      "name": "isApprovedForAll",
      "outputs": [
        {
          "internalType": "bool",
          "name": "",
          "type": "bool"
        }
      ],
      "stateMutability": "view",
      "type": "function"
    },
    {
      "inputs": [],
      "name": "name",
      "outputs": [
        {
          "internalType": "string",
          "name": "",
          "type": "string"
        }
      ],
      "stateMutability": "view",
      "type": "function"
    },
    {
      "inputs": [],
      "name": "owner",
      "outputs": [
        {
          "internalType": "address",
          "name": "",
          "type": "address"
        }
      ],
      "stateMutability": "view",
      "type": "function"
    },
    {
      "inputs": [
        {
          "internalType": "uint256",
          "name": "tokenId",
          "type": "uint256"
        }
      ],
      "name": "ownerOf",
      "outputs": [
        {
          "internalType": "address",
          "name": "",
          "type": "address"
        }
      ],
      "stateMutability": "view",
      "type": "function"
    },
    {
      "inputs": [],
      "name": "renounceOwnership",
      "outputs": [],
      "stateMutability": "nonpayable",
      "type": "function"
    },
    {
      "inputs": [
        {
          "internalType": "address",
          "name": "to",
          "type": "address"
        },
        {
          "internalType": "uint256",
          "name": "tokenId",
          "type": "uint256"
        },
        {
          "internalType": "string",
          "name": "uri",
          "type": "string"
        }
      ],
      "name": "safeMint",
      "outputs": [],
      "stateMutability": "nonpayable",
      "type": "function"
    },
    {
      "inputs": [
        {
          "internalType": "address",
          "name": "from",
          "type": "address"
        },
        {
          "internalType": "address",
          "name": "to",
          "type": "address"
        },
        {
          "internalType": "uint256",
          "name": "tokenId",
          "type": "uint256"
        }
      ],
      "name": "safeTransferFrom",
      "outputs": [],
      "stateMutability": "nonpayable",
      "type": "function"
    },
    {
      "inputs": [
        {
          "internalType": "address",
          "name": "from",
          "type": "address"
        },
        {
          "internalType": "address",
          "name": "to",
          "type": "address"
        },
        {
          "internalType": "uint256",
          "name": "tokenId",
          "type": "uint256"
        },
        {
          "internalType": "bytes",
          "name": "data",
          "type": "bytes"
        }
      ],
      "name": "safeTransferFrom",
      "outputs": [],
      "stateMutability": "nonpayable",
      "type": "function"
    },
    {
      "inputs": [
        {
          "internalType": "address",
          "name": "operator",
          "type": "address"
        },
        {
          "internalType": "bool",
          "name": "approved",
          "type": "bool"
        }
      ],
      "name": "setApprovalForAll",
      "outputs": [],
      "stateMutability": "nonpayable",
      "type": "function"
    },
    {
      "inputs": [
        {
          "internalType": "bytes4",
          "name": "interfaceId",
          "type": "bytes4"
        }
      ],
      "name": "supportsInterface",
      "outputs": [
        {
          "internalType": "bool",
          "name": "",
          "type": "bool"
        }
      ],
      "stateMutability": "view",
      "type": "function"
    },
    {
      "inputs": [],
      "name": "symbol",
      "outputs": [
        {
          "internalType": "string",
          "name": "",
          "type": "string"
        }
      ],
      "stateMutability": "view",
      "type": "function"
    },
    {
      "inputs": [
        {
          "internalType": "uint256",
          "name": "tokenId",
          "type": "uint256"
        }
      ],
      "name": "tokenURI",
      "outputs": [
        {
          "internalType": "string",
          "name": "",
          "type": "string"
        }
      ],
      "stateMutability": "view",
      "type": "function"
    },
    {
      "inputs": [
        {
          "internalType": "address",
          "name": "from",
          "type": "address"
        },
        {
          "internalType": "address",
          "name": "to",
          "type": "address"
        },
        {
          "internalType": "uint256",
          "name": "tokenId",
          "type": "uint256"
        }
      ],
      "name": "transferFrom",
      "outputs": [],
      "stateMutability": "nonpayable",
      "type": "function"
    },
    {
      "inputs": [
        {
          "internalType": "address",
          "name": "newOwner",
          "type": "address"
        }
      ],
      "name": "transferOwnership",
      "outputs": [],
      "stateMutability": "nonpayable",
      "type": "function"
    }
  ],
  "bytecode": "0x60806040523480156200001157600080fd5b50336040518060400160405280601581526020017f50726f746f6669726520536166652045524337323100000000000000000000008152506040518060400160405280600381526020017f5053450000000000000000000000000000000000000000000000000000000000815250816000908162000090919062000472565b508060019081620000a2919062000472565b505050600073ffffffffffffffffffffffffffffffffffffffff168173ffffffffffffffffffffffffffffffffffffffff16036200011a5760006040517f1e4fbdf70000000000000000000000000000000000000000000000000000000081526004016200011191906200059e565b60405180910390fd5b6200012b816200013260201b60201c565b50620005bb565b6000600760009054906101000a900473ffffffffffffffffffffffffffffffffffffffff16905081600760006101000a81548173ffffffffffffffffffffffffffffffffffffffff021916908373ffffffffffffffffffffffffffffffffffffffff1602179055508173ffffffffffffffffffffffffffffffffffffffff168173ffffffffffffffffffffffffffffffffffffffff167f8be0079c531659141344cd1fd0a4f28419497f9722a3daafe3b4186f6b6457e060405160405180910390a35050565b600081519050919050565b7f4e487b7100000000000000000000000000000000000000000000000000000000600052604160045260246000fd5b7f4e487b7100000000000000000000000000000000000000000000000000000000600052602260045260246000fd5b600060028204905060018216806200027a57607f821691505b60208210810362000290576200028f62000232565b5b50919050565b60008190508160005260206000209050919050565b60006020601f8301049050919050565b600082821b905092915050565b600060088302620002fa7fffffffffffffffffffffffffffffffffffffffffffffffffffffffffffffffff82620002bb565b620003068683620002bb565b95508019841693508086168417925050509392505050565b6000819050919050565b6000819050919050565b6000620003536200034d62000347846200031e565b62000328565b6200031e565b9050919050565b6000819050919050565b6200036f8362000332565b620003876200037e826200035a565b848454620002c8565b825550505050565b600090565b6200039e6200038f565b620003ab81848462000364565b505050565b5b81811015620003d357620003c760008262000394565b600181019050620003b1565b5050565b601f8211156200042257620003ec8162000296565b620003f784620002ab565b8101602085101562000407578190505b6200041f6200041685620002ab565b830182620003b0565b50505b505050565b600082821c905092915050565b6000620004476000198460080262000427565b1980831691505092915050565b600062000462838362000434565b9150826002028217905092915050565b6200047d82620001f8565b67ffffffffffffffff81111562000499576200049862000203565b5b620004a5825462000261565b620004b2828285620003d7565b600060209050601f831160018114620004ea5760008415620004d5578287015190505b620004e1858262000454565b86555062000551565b601f198416620004fa8662000296565b60005b828110156200052457848901518255600182019150602085019450602081019050620004fd565b8683101562000544578489015162000540601f89168262000434565b8355505b6001600288020188555050505b505050505050565b600073ffffffffffffffffffffffffffffffffffffffff82169050919050565b6000620005868262000559565b9050919050565b620005988162000579565b82525050565b6000602082019050620005b560008301846200058d565b92915050565b61263f80620005cb6000396000f3fe608060405234801561001057600080fd5b50600436106101165760003560e01c8063715018a6116100a2578063b88d4fde11610071578063b88d4fde146102cb578063c87b56dd146102e7578063cd279c7c14610317578063e985e9c514610333578063f2fde38b1461036357610116565b8063715018a6146102695780638da5cb5b1461027357806395d89b4114610291578063a22cb465146102af57610116565b806323b872dd116100e957806323b872dd146101b557806342842e0e146101d157806342966c68146101ed5780636352211e1461020957806370a082311461023957610116565b806301ffc9a71461011b57806306fdde031461014b578063081812fc14610169578063095ea7b314610199575b600080fd5b61013560048036038101906101309190611afb565b61037f565b6040516101429190611b43565b60405180910390f35b610153610391565b6040516101609190611bee565b60405180910390f35b610183600480360381019061017e9190611c46565b610423565b6040516101909190611cb4565b60405180910390f35b6101b360048036038101906101ae9190611cfb565b61043f565b005b6101cf60048036038101906101ca9190611d3b565b610455565b005b6101eb60048036038101906101e69190611d3b565b610557565b005b61020760048036038101906102029190611c46565b610577565b005b610223600480360381019061021e9190611c46565b61058e565b6040516102309190611cb4565b60405180910390f35b610253600480360381019061024e9190611d8e565b6105a0565b6040516102609190611dca565b60405180910390f35b61027161065a565b005b61027b61066e565b6040516102889190611cb4565b60405180910390f35b610299610698565b6040516102a69190611bee565b60405180910390f35b6102c960048036038101906102c49190611e11565b61072a565b005b6102e560048036038101906102e09190611f86565b610740565b005b61030160048036038101906102fc9190611c46565b610765565b60405161030e9190611bee565b60405180910390f35b610331600480360381019061032c91906120aa565b610777565b005b61034d60048036038101906103489190612119565b610790565b60405161035a9190611b43565b60405180910390f35b61037d60048036038101906103789190611d8e565b610824565b005b600061038a826108aa565b9050919050565b6060600080546103a090612188565b80601f01602080910402602001604051908101604052809291908181526020018280546103cc90612188565b80156104195780601f106103ee57610100808354040283529160200191610419565b820191906000526020600020905b8154815290600101906020018083116103fc57829003601f168201915b5050505050905090565b600061042e8261090b565b5061043882610993565b9050919050565b610451828261044c6109d0565b6109d8565b5050565b600073ffffffffffffffffffffffffffffffffffffffff168273ffffffffffffffffffffffffffffffffffffffff16036104c75760006040517f64a0ae920000000000000000000000000000000000000000000000000000000081526004016104be9190611cb4565b60405180910390fd5b60006104db83836104d66109d0565b6109ea565b90508373ffffffffffffffffffffffffffffffffffffffff168173ffffffffffffffffffffffffffffffffffffffff1614610551578382826040517f64283d7b000000000000000000000000000000000000000000000000000000008152600401610548939291906121b9565b60405180910390fd5b50505050565b61057283838360405180602001604052806000815250610740565b505050565b61058a6000826105856109d0565b6109ea565b5050565b60006105998261090b565b9050919050565b60008073ffffffffffffffffffffffffffffffffffffffff168273ffffffffffffffffffffffffffffffffffffffff16036106135760006040517f89c62b6400000000000000000000000000000000000000000000000000000000815260040161060a9190611cb4565b60405180910390fd5b600360008373ffffffffffffffffffffffffffffffffffffffff1673ffffffffffffffffffffffffffffffffffffffff168152602001908152602001600020549050919050565b610662610c04565b61066c6000610c8b565b565b6000600760009054906101000a900473ffffffffffffffffffffffffffffffffffffffff16905090565b6060600180546106a790612188565b80601f01602080910402602001604051908101604052809291908181526020018280546106d390612188565b80156107205780601f106106f557610100808354040283529160200191610720565b820191906000526020600020905b81548152906001019060200180831161070357829003601f168201915b5050505050905090565b61073c6107356109d0565b8383610d51565b5050565b61074b848484610455565b61075f6107566109d0565b85858585610ec0565b50505050565b606061077082611071565b9050919050565b6107818383611184565b61078b82826111a2565b505050565b6000600560008473ffffffffffffffffffffffffffffffffffffffff1673ffffffffffffffffffffffffffffffffffffffff16815260200190815260200160002060008373ffffffffffffffffffffffffffffffffffffffff1673ffffffffffffffffffffffffffffffffffffffff16815260200190815260200160002060009054906101000a900460ff16905092915050565b61082c610c04565b600073ffffffffffffffffffffffffffffffffffffffff168173ffffffffffffffffffffffffffffffffffffffff160361089e5760006040517f1e4fbdf70000000000000000000000000000000000000000000000000000000081526004016108959190611cb4565b60405180910390fd5b6108a781610c8b565b50565b6000634906490660e01b7bffffffffffffffffffffffffffffffffffffffffffffffffffffffff1916827bffffffffffffffffffffffffffffffffffffffffffffffffffffffff191614806109045750610903826111fe565b5b9050919050565b600080610917836112e0565b9050600073ffffffffffffffffffffffffffffffffffffffff168173ffffffffffffffffffffffffffffffffffffffff160361098a57826040517f7e2732890000000000000000000000000000000000000000000000000000000081526004016109819190611dca565b60405180910390fd5b80915050919050565b60006004600083815260200190815260200160002060009054906101000a900473ffffffffffffffffffffffffffffffffffffffff169050919050565b600033905090565b6109e5838383600161131d565b505050565b6000806109f6846112e0565b9050600073ffffffffffffffffffffffffffffffffffffffff168373ffffffffffffffffffffffffffffffffffffffff1614610a3857610a378184866114e2565b5b600073ffffffffffffffffffffffffffffffffffffffff168173ffffffffffffffffffffffffffffffffffffffff1614610ac957610a7a60008560008061131d565b6001600360008373ffffffffffffffffffffffffffffffffffffffff1673ffffffffffffffffffffffffffffffffffffffff168152602001908152602001600020600082825403925050819055505b600073ffffffffffffffffffffffffffffffffffffffff168573ffffffffffffffffffffffffffffffffffffffff1614610b4c576001600360008773ffffffffffffffffffffffffffffffffffffffff1673ffffffffffffffffffffffffffffffffffffffff168152602001908152602001600020600082825401925050819055505b846002600086815260200190815260200160002060006101000a81548173ffffffffffffffffffffffffffffffffffffffff021916908373ffffffffffffffffffffffffffffffffffffffff160217905550838573ffffffffffffffffffffffffffffffffffffffff168273ffffffffffffffffffffffffffffffffffffffff167fddf252ad1be2c89b69c2b068fc378daa952ba7f163c4a11628f55a4df523b3ef60405160405180910390a4809150509392505050565b610c0c6109d0565b73ffffffffffffffffffffffffffffffffffffffff16610c2a61066e565b73ffffffffffffffffffffffffffffffffffffffff1614610c8957610c4d6109d0565b6040517f118cdaa7000000000000000000000000000000000000000000000000000000008152600401610c809190611cb4565b60405180910390fd5b565b6000600760009054906101000a900473ffffffffffffffffffffffffffffffffffffffff16905081600760006101000a81548173ffffffffffffffffffffffffffffffffffffffff021916908373ffffffffffffffffffffffffffffffffffffffff1602179055508173ffffffffffffffffffffffffffffffffffffffff168173ffffffffffffffffffffffffffffffffffffffff167f8be0079c531659141344cd1fd0a4f28419497f9722a3daafe3b4186f6b6457e060405160405180910390a35050565b600073ffffffffffffffffffffffffffffffffffffffff168273ffffffffffffffffffffffffffffffffffffffff1603610dc257816040517f5b08ba18000000000000000000000000000000000000000000000000000000008152600401610db99190611cb4565b60405180910390fd5b80600560008573ffffffffffffffffffffffffffffffffffffffff1673ffffffffffffffffffffffffffffffffffffffff16815260200190815260200160002060008473ffffffffffffffffffffffffffffffffffffffff1673ffffffffffffffffffffffffffffffffffffffff16815260200190815260200160002060006101000a81548160ff0219169083151502179055508173ffffffffffffffffffffffffffffffffffffffff168373ffffffffffffffffffffffffffffffffffffffff167f17307eab39ab6107e8899845ad3d59bd9653f200f220920489ca2b5937696c3183604051610eb39190611b43565b60405180910390a3505050565b60008373ffffffffffffffffffffffffffffffffffffffff163b111561106a578273ffffffffffffffffffffffffffffffffffffffff1663150b7a02868685856040518563ffffffff1660e01b8152600401610f1f9493929190612245565b6020604051808303816000875af1925050508015610f5b57506040513d601f19601f82011682018060405250810190610f5891906122a6565b60015b610fdf573d8060008114610f8b576040519150601f19603f3d011682016040523d82523d6000602084013e610f90565b606091505b506000815103610fd757836040517f64a0ae92000000000000000000000000000000000000000000000000000000008152600401610fce9190611cb4565b60405180910390fd5b805160208201fd5b63150b7a0260e01b7bffffffffffffffffffffffffffffffffffffffffffffffffffffffff1916817bffffffffffffffffffffffffffffffffffffffffffffffffffffffff19161461106857836040517f64a0ae9200000000000000000000000000000000000000000000000000000000815260040161105f9190611cb4565b60405180910390fd5b505b5050505050565b606061107c8261090b565b50600060066000848152602001908152602001600020805461109d90612188565b80601f01602080910402602001604051908101604052809291908181526020018280546110c990612188565b80156111165780601f106110eb57610100808354040283529160200191611116565b820191906000526020600020905b8154815290600101906020018083116110f957829003601f168201915b5050505050905060006111276115a6565b9050600081510361113c57819250505061117f565b60008251111561117157808260405160200161115992919061230f565b6040516020818303038152906040529250505061117f565b61117a846115bd565b925050505b919050565b61119e828260405180602001604052806000815250611626565b5050565b806006600084815260200190815260200160002090816111c291906124df565b507ff8e1a15aba9398e019f0b49df1a4fde98ee17ae345cb5f6b5e2c27f5033e8ce7826040516111f29190611dca565b60405180910390a15050565b60007f80ac58cd000000000000000000000000000000000000000000000000000000007bffffffffffffffffffffffffffffffffffffffffffffffffffffffff1916827bffffffffffffffffffffffffffffffffffffffffffffffffffffffff191614806112c957507f5b5e139f000000000000000000000000000000000000000000000000000000007bffffffffffffffffffffffffffffffffffffffffffffffffffffffff1916827bffffffffffffffffffffffffffffffffffffffffffffffffffffffff1916145b806112d957506112d88261164a565b5b9050919050565b60006002600083815260200190815260200160002060009054906101000a900473ffffffffffffffffffffffffffffffffffffffff169050919050565b80806113565750600073ffffffffffffffffffffffffffffffffffffffff168273ffffffffffffffffffffffffffffffffffffffff1614155b1561148a5760006113668461090b565b9050600073ffffffffffffffffffffffffffffffffffffffff168373ffffffffffffffffffffffffffffffffffffffff16141580156113d157508273ffffffffffffffffffffffffffffffffffffffff168173ffffffffffffffffffffffffffffffffffffffff1614155b80156113e457506113e28184610790565b155b1561142657826040517fa9fbf51f00000000000000000000000000000000000000000000000000000000815260040161141d9190611cb4565b60405180910390fd5b811561148857838573ffffffffffffffffffffffffffffffffffffffff168273ffffffffffffffffffffffffffffffffffffffff167f8c5be1e5ebec7d5bd14f71427d1e84f3dd0314c0f7b2291e5b200ac8c7c3b92560405160405180910390a45b505b836004600085815260200190815260200160002060006101000a81548173ffffffffffffffffffffffffffffffffffffffff021916908373ffffffffffffffffffffffffffffffffffffffff16021790555050505050565b6114ed8383836116b4565b6115a157600073ffffffffffffffffffffffffffffffffffffffff168373ffffffffffffffffffffffffffffffffffffffff160361156257806040517f7e2732890000000000000000000000000000000000000000000000000000000081526004016115599190611dca565b60405180910390fd5b81816040517f177e802f0000000000000000000000000000000000000000000000000000000081526004016115989291906125b1565b60405180910390fd5b505050565b606060405180602001604052806000815250905090565b60606115c88261090b565b5060006115d36115a6565b905060008151116115f3576040518060200160405280600081525061161e565b806115fd84611775565b60405160200161160e92919061230f565b6040516020818303038152906040525b915050919050565b6116308383611843565b61164561163b6109d0565b6000858585610ec0565b505050565b60007f01ffc9a7000000000000000000000000000000000000000000000000000000007bffffffffffffffffffffffffffffffffffffffffffffffffffffffff1916827bffffffffffffffffffffffffffffffffffffffffffffffffffffffff1916149050919050565b60008073ffffffffffffffffffffffffffffffffffffffff168373ffffffffffffffffffffffffffffffffffffffff161415801561176c57508273ffffffffffffffffffffffffffffffffffffffff168473ffffffffffffffffffffffffffffffffffffffff16148061172d575061172c8484610790565b5b8061176b57508273ffffffffffffffffffffffffffffffffffffffff1661175383610993565b73ffffffffffffffffffffffffffffffffffffffff16145b5b90509392505050565b6060600060016117848461193c565b01905060008167ffffffffffffffff8111156117a3576117a2611e5b565b5b6040519080825280601f01601f1916602001820160405280156117d55781602001600182028036833780820191505090505b509050600082602083010190505b600115611838578080600190039150507f3031323334353637383961626364656600000000000000000000000000000000600a86061a8153600a858161182c5761182b6125da565b5b049450600085036117e3575b819350505050919050565b600073ffffffffffffffffffffffffffffffffffffffff168273ffffffffffffffffffffffffffffffffffffffff16036118b55760006040517f64a0ae920000000000000000000000000000000000000000000000000000000081526004016118ac9190611cb4565b60405180910390fd5b60006118c3838360006109ea565b9050600073ffffffffffffffffffffffffffffffffffffffff168173ffffffffffffffffffffffffffffffffffffffff16146119375760006040517f73c6ac6e00000000000000000000000000000000000000000000000000000000815260040161192e9190611cb4565b60405180910390fd5b505050565b600080600090507a184f03e93ff9f4daa797ed6e38ed64bf6a1f010000000000000000831061199a577a184f03e93ff9f4daa797ed6e38ed64bf6a1f01000000000000000083816119905761198f6125da565b5b0492506040810190505b6d04ee2d6d415b85acef810000000083106119d7576d04ee2d6d415b85acef810000000083816119cd576119cc6125da565b5b0492506020810190505b662386f26fc100008310611a0657662386f26fc1000083816119fc576119fb6125da565b5b0492506010810190505b6305f5e1008310611a2f576305f5e1008381611a2557611a246125da565b5b0492506008810190505b6127108310611a54576127108381611a4a57611a496125da565b5b0492506004810190505b60648310611a775760648381611a6d57611a6c6125da565b5b0492506002810190505b600a8310611a86576001810190505b80915050919050565b6000604051905090565b600080fd5b600080fd5b60007fffffffff0000000000000000000000000000000000000000000000000000000082169050919050565b611ad881611aa3565b8114611ae357600080fd5b50565b600081359050611af581611acf565b92915050565b600060208284031215611b1157611b10611a99565b5b6000611b1f84828501611ae6565b91505092915050565b60008115159050919050565b611b3d81611b28565b82525050565b6000602082019050611b586000830184611b34565b92915050565b600081519050919050565b600082825260208201905092915050565b60005b83811015611b98578082015181840152602081019050611b7d565b60008484015250505050565b6000601f19601f8301169050919050565b6000611bc082611b5e565b611bca8185611b69565b9350611bda818560208601611b7a565b611be381611ba4565b840191505092915050565b60006020820190508181036000830152611c088184611bb5565b905092915050565b6000819050919050565b611c2381611c10565b8114611c2e57600080fd5b50565b600081359050611c4081611c1a565b92915050565b600060208284031215611c5c57611c5b611a99565b5b6000611c6a84828501611c31565b91505092915050565b600073ffffffffffffffffffffffffffffffffffffffff82169050919050565b6000611c9e82611c73565b9050919050565b611cae81611c93565b82525050565b6000602082019050611cc96000830184611ca5565b92915050565b611cd881611c93565b8114611ce357600080fd5b50565b600081359050611cf581611ccf565b92915050565b60008060408385031215611d1257611d11611a99565b5b6000611d2085828601611ce6565b9250506020611d3185828601611c31565b9150509250929050565b600080600060608486031215611d5457611d53611a99565b5b6000611d6286828701611ce6565b9350506020611d7386828701611ce6565b9250506040611d8486828701611c31565b9150509250925092565b600060208284031215611da457611da3611a99565b5b6000611db284828501611ce6565b91505092915050565b611dc481611c10565b82525050565b6000602082019050611ddf6000830184611dbb565b92915050565b611dee81611b28565b8114611df957600080fd5b50565b600081359050611e0b81611de5565b92915050565b60008060408385031215611e2857611e27611a99565b5b6000611e3685828601611ce6565b9250506020611e4785828601611dfc565b9150509250929050565b600080fd5b600080fd5b7f4e487b7100000000000000000000000000000000000000000000000000000000600052604160045260246000fd5b611e9382611ba4565b810181811067ffffffffffffffff82111715611eb257611eb1611e5b565b5b80604052505050565b6000611ec5611a8f565b9050611ed18282611e8a565b919050565b600067ffffffffffffffff821115611ef157611ef0611e5b565b5b611efa82611ba4565b9050602081019050919050565b82818337600083830152505050565b6000611f29611f2484611ed6565b611ebb565b905082815260208101848484011115611f4557611f44611e56565b5b611f50848285611f07565b509392505050565b600082601f830112611f6d57611f6c611e51565b5b8135611f7d848260208601611f16565b91505092915050565b60008060008060808587031215611fa057611f9f611a99565b5b6000611fae87828801611ce6565b9450506020611fbf87828801611ce6565b9350506040611fd087828801611c31565b925050606085013567ffffffffffffffff811115611ff157611ff0611a9e565b5b611ffd87828801611f58565b91505092959194509250565b600067ffffffffffffffff82111561202457612023611e5b565b5b61202d82611ba4565b9050602081019050919050565b600061204d61204884612009565b611ebb565b90508281526020810184848401111561206957612068611e56565b5b612074848285611f07565b509392505050565b600082601f83011261209157612090611e51565b5b81356120a184826020860161203a565b91505092915050565b6000806000606084860312156120c3576120c2611a99565b5b60006120d186828701611ce6565b93505060206120e286828701611c31565b925050604084013567ffffffffffffffff81111561210357612102611a9e565b5b61210f8682870161207c565b9150509250925092565b600080604083850312156121305761212f611a99565b5b600061213e85828601611ce6565b925050602061214f85828601611ce6565b9150509250929050565b7f4e487b7100000000000000000000000000000000000000000000000000000000600052602260045260246000fd5b600060028204905060018216806121a057607f821691505b6020821081036121b3576121b2612159565b5b50919050565b60006060820190506121ce6000830186611ca5565b6121db6020830185611dbb565b6121e86040830184611ca5565b949350505050565b600081519050919050565b600082825260208201905092915050565b6000612217826121f0565b61222181856121fb565b9350612231818560208601611b7a565b61223a81611ba4565b840191505092915050565b600060808201905061225a6000830187611ca5565b6122676020830186611ca5565b6122746040830185611dbb565b8181036060830152612286818461220c565b905095945050505050565b6000815190506122a081611acf565b92915050565b6000602082840312156122bc576122bb611a99565b5b60006122ca84828501612291565b91505092915050565b600081905092915050565b60006122e982611b5e565b6122f381856122d3565b9350612303818560208601611b7a565b80840191505092915050565b600061231b82856122de565b915061232782846122de565b91508190509392505050565b60008190508160005260206000209050919050565b60006020601f8301049050919050565b600082821b905092915050565b6000600883026123957fffffffffffffffffffffffffffffffffffffffffffffffffffffffffffffffff82612358565b61239f8683612358565b95508019841693508086168417925050509392505050565b6000819050919050565b60006123dc6123d76123d284611c10565b6123b7565b611c10565b9050919050565b6000819050919050565b6123f6836123c1565b61240a612402826123e3565b848454612365565b825550505050565b600090565b61241f612412565b61242a8184846123ed565b505050565b5b8181101561244e57612443600082612417565b600181019050612430565b5050565b601f8211156124935761246481612333565b61246d84612348565b8101602085101561247c578190505b61249061248885612348565b83018261242f565b50505b505050565b600082821c905092915050565b60006124b660001984600802612498565b1980831691505092915050565b60006124cf83836124a5565b9150826002028217905092915050565b6124e882611b5e565b67ffffffffffffffff81111561250157612500611e5b565b5b61250b8254612188565b612516828285612452565b600060209050601f8311600181146125495760008415612537578287015190505b61254185826124c3565b8655506125a9565b601f19841661255786612333565b60005b8281101561257f5784890151825560018201915060208501945060208101905061255a565b8683101561259c5784890151612598601f8916826124a5565b8355505b6001600288020188555050505b505050505050565b60006040820190506125c66000830185611ca5565b6125d36020830184611dbb565b9392505050565b7f4e487b7100000000000000000000000000000000000000000000000000000000600052601260045260246000fdfea26469706673582212209887b1f39a410ad9a436e1c8e80151d9ca7ffd8d1178c3cc8d8f8f59d7a3ec8a64736f6c63430008180033",
  "linkReferences": {},
  "deployedLinkReferences": {}
}